{
  "contracts/PriceConverter.sol": {
    "PriceConverter": {
      "abi": [
        {
          "inputs": [
            {
              "internalType": "address",
              "name": "_base",
              "type": "address"
            },
            {
              "internalType": "address",
              "name": "_quote",
              "type": "address"
            },
            {
              "internalType": "uint8",
              "name": "_decimals",
              "type": "uint8"
            }
          ],
          "name": "getDerivedPrice",
          "outputs": [
            {
              "internalType": "int256",
              "name": "",
              "type": "int256"
            }
          ],
          "stateMutability": "view",
          "type": "function"
        },
        {
          "inputs": [
            {
              "internalType": "address",
              "name": "_base",
              "type": "address"
            }
          ],
          "name": "getLatestPrice",
          "outputs": [
            {
              "internalType": "int256",
              "name": "",
              "type": "int256"
            }
          ],
          "stateMutability": "view",
          "type": "function"
        }
      ],
      "evm": {
        "bytecode": {
          "linkReferences": {},
          "object": "608060405234801561001057600080fd5b50610b69806100206000396000f3fe608060405234801561001057600080fd5b50600436106100365760003560e01c806316345f181461003b578063974366551461006b575b600080fd5b610055600480360381019061005091906104f2565b61009b565b604051610062919061064c565b60405180910390f35b6100856004803603810190610080919061051f565b610131565b604051610092919061064c565b60405180910390f35b60008082905060008173ffffffffffffffffffffffffffffffffffffffff1663feaf968c6040518163ffffffff1660e01b815260040160a06040518083038186803b1580156100e957600080fd5b505afa1580156100fd573d6000803e3d6000fd5b505050506040513d601f19601f820116820180604052508101906101219190610572565b5050509150508092505050919050565b60008060ff168260ff1611801561014f5750601260ff168260ff1611155b61018e576040517f08c379a000000000000000000000000000000000000000000000000000000000815260040161018590610667565b60405180910390fd5b60008260ff16600a6101a09190610755565b905060008573ffffffffffffffffffffffffffffffffffffffff1663feaf968c6040518163ffffffff1660e01b815260040160a06040518083038186803b1580156101ea57600080fd5b505afa1580156101fe573d6000803e3d6000fd5b505050506040513d601f19601f820116820180604052508101906102229190610572565b50505091505060008673ffffffffffffffffffffffffffffffffffffffff1663313ce5676040518163ffffffff1660e01b815260040160206040518083038186803b15801561027057600080fd5b505afa158015610284573d6000803e3d6000fd5b505050506040513d601f19601f820116820180604052508101906102a891906105ed565b90506102b58282876103f1565b915060008673ffffffffffffffffffffffffffffffffffffffff1663feaf968c6040518163ffffffff1660e01b815260040160a06040518083038186803b1580156102ff57600080fd5b505afa158015610313573d6000803e3d6000fd5b505050506040513d601f19601f820116820180604052508101906103379190610572565b50505091505060008773ffffffffffffffffffffffffffffffffffffffff1663313ce5676040518163ffffffff1660e01b815260040160206040518083038186803b15801561038557600080fd5b505afa158015610399573d6000803e3d6000fd5b505050506040513d601f19601f820116820180604052508101906103bd91906105ed565b90506103ca8282896103f1565b91508185856103d99190610873565b6103e39190610698565b955050505050509392505050565b60008160ff168360ff16101561042e57828261040d919061098a565b60ff16600a61041c9190610755565b846104279190610873565b905061046d565b8160ff168360ff161115610469578183610448919061098a565b60ff16600a6104579190610755565b846104629190610698565b905061046d565b8390505b9392505050565b60008135905061048381610ac0565b92915050565b60008151905061049881610ad7565b92915050565b6000815190506104ad81610aee565b92915050565b6000813590506104c281610b05565b92915050565b6000815190506104d781610b1c565b92915050565b6000815190506104ec81610b05565b92915050565b60006020828403121561050857610507610a85565b5b600061051684828501610474565b91505092915050565b60008060006060848603121561053857610537610a85565b5b600061054686828701610474565b935050602061055786828701610474565b9250506040610568868287016104b3565b9150509250925092565b600080600080600060a0868803121561058e5761058d610a85565b5b600061059c888289016104c8565b95505060206105ad88828901610489565b94505060406105be8882890161049e565b93505060606105cf8882890161049e565b92505060806105e0888289016104c8565b9150509295509295909350565b60006020828403121561060357610602610a85565b5b6000610611848285016104dd565b91505092915050565b610623816109d0565b82525050565b6000610636601183610687565b915061064182610a97565b602082019050919050565b6000602082019050610661600083018461061a565b92915050565b6000602082019050818103600083015261068081610629565b9050919050565b600082825260208201905092915050565b60006106a3826109d0565b91506106ae836109d0565b9250826106be576106bd610a56565b5b600160000383147f8000000000000000000000000000000000000000000000000000000000000000831416156106f7576106f6610a27565b5b828205905092915050565b6000808291508390505b600185111561074c5780860481111561072857610727610a27565b5b60018516156107375780820291505b808102905061074585610a8a565b945061070c565b94509492505050565b6000610760826109fa565b915061076b836109fa565b92506107987fffffffffffffffffffffffffffffffffffffffffffffffffffffffffffffffff84846107a0565b905092915050565b6000826107b0576001905061086c565b816107be576000905061086c565b81600181146107d457600281146107de5761080d565b600191505061086c565b60ff8411156107f0576107ef610a27565b5b8360020a91508482111561080757610806610a27565b5b5061086c565b5060208310610133831016604e8410600b84101617156108425782820a90508381111561083d5761083c610a27565b5b61086c565b61084f8484846001610702565b9250905081840481111561086657610865610a27565b5b81810290505b9392505050565b600061087e826109d0565b9150610889836109d0565b9250827f7fffffffffffffffffffffffffffffffffffffffffffffffffffffffffffffff04821160008413600084131616156108c8576108c7610a27565b5b817f8000000000000000000000000000000000000000000000000000000000000000058312600084126000841316161561090557610904610a27565b5b827f8000000000000000000000000000000000000000000000000000000000000000058212600084136000841216161561094257610941610a27565b5b827f7fffffffffffffffffffffffffffffffffffffffffffffffffffffffffffffff058212600084126000841216161561097f5761097e610a27565b5b828202905092915050565b600061099582610a04565b91506109a083610a04565b9250828210156109b3576109b2610a27565b5b828203905092915050565b60006109c9826109da565b9050919050565b6000819050919050565b600073ffffffffffffffffffffffffffffffffffffffff82169050919050565b6000819050919050565b600060ff82169050919050565b600069ffffffffffffffffffff82169050919050565b7f4e487b7100000000000000000000000000000000000000000000000000000000600052601160045260246000fd5b7f4e487b7100000000000000000000000000000000000000000000000000000000600052601260045260246000fd5b600080fd5b60008160011c9050919050565b7f496e76616c6964205f646563696d616c73000000000000000000000000000000600082015250565b610ac9816109be565b8114610ad457600080fd5b50565b610ae0816109d0565b8114610aeb57600080fd5b50565b610af7816109fa565b8114610b0257600080fd5b50565b610b0e81610a04565b8114610b1957600080fd5b50565b610b2581610a11565b8114610b3057600080fd5b5056fea2646970667358221220a334206a7ea01525ceb746cfc3e56719db5e7cfd81aa7570bd1546ac257c83b364736f6c63430008070033",
          "opcodes": "PUSH1 0x80 PUSH1 0x40 MSTORE CALLVALUE DUP1 ISZERO PUSH2 0x10 JUMPI PUSH1 0x0 DUP1 REVERT JUMPDEST POP PUSH2 0xB69 DUP1 PUSH2 0x20 PUSH1 0x0 CODECOPY PUSH1 0x0 RETURN INVALID PUSH1 0x80 PUSH1 0x40 MSTORE CALLVALUE DUP1 ISZERO PUSH2 0x10 JUMPI PUSH1 0x0 DUP1 REVERT JUMPDEST POP PUSH1 0x4 CALLDATASIZE LT PUSH2 0x36 JUMPI PUSH1 0x0 CALLDATALOAD PUSH1 0xE0 SHR DUP1 PUSH4 0x16345F18 EQ PUSH2 0x3B JUMPI DUP1 PUSH4 0x97436655 EQ PUSH2 0x6B JUMPI JUMPDEST PUSH1 0x0 DUP1 REVERT JUMPDEST PUSH2 0x55 PUSH1 0x4 DUP1 CALLDATASIZE SUB DUP2 ADD SWAP1 PUSH2 0x50 SWAP2 SWAP1 PUSH2 0x4F2 JUMP JUMPDEST PUSH2 0x9B JUMP JUMPDEST PUSH1 0x40 MLOAD PUSH2 0x62 SWAP2 SWAP1 PUSH2 0x64C JUMP JUMPDEST PUSH1 0x40 MLOAD DUP1 SWAP2 SUB SWAP1 RETURN JUMPDEST PUSH2 0x85 PUSH1 0x4 DUP1 CALLDATASIZE SUB DUP2 ADD SWAP1 PUSH2 0x80 SWAP2 SWAP1 PUSH2 0x51F JUMP JUMPDEST PUSH2 0x131 JUMP JUMPDEST PUSH1 0x40 MLOAD PUSH2 0x92 SWAP2 SWAP1 PUSH2 0x64C JUMP JUMPDEST PUSH1 0x40 MLOAD DUP1 SWAP2 SUB SWAP1 RETURN JUMPDEST PUSH1 0x0 DUP1 DUP3 SWAP1 POP PUSH1 0x0 DUP2 PUSH20 0xFFFFFFFFFFFFFFFFFFFFFFFFFFFFFFFFFFFFFFFF AND PUSH4 0xFEAF968C PUSH1 0x40 MLOAD DUP2 PUSH4 0xFFFFFFFF AND PUSH1 0xE0 SHL DUP2 MSTORE PUSH1 0x4 ADD PUSH1 0xA0 PUSH1 0x40 MLOAD DUP1 DUP4 SUB DUP2 DUP7 DUP1 EXTCODESIZE ISZERO DUP1 ISZERO PUSH2 0xE9 JUMPI PUSH1 0x0 DUP1 REVERT JUMPDEST POP GAS STATICCALL ISZERO DUP1 ISZERO PUSH2 0xFD JUMPI RETURNDATASIZE PUSH1 0x0 DUP1 RETURNDATACOPY RETURNDATASIZE PUSH1 0x0 REVERT JUMPDEST POP POP POP POP PUSH1 0x40 MLOAD RETURNDATASIZE PUSH1 0x1F NOT PUSH1 0x1F DUP3 ADD AND DUP3 ADD DUP1 PUSH1 0x40 MSTORE POP DUP2 ADD SWAP1 PUSH2 0x121 SWAP2 SWAP1 PUSH2 0x572 JUMP JUMPDEST POP POP POP SWAP2 POP POP DUP1 SWAP3 POP POP POP SWAP2 SWAP1 POP JUMP JUMPDEST PUSH1 0x0 DUP1 PUSH1 0xFF AND DUP3 PUSH1 0xFF AND GT DUP1 ISZERO PUSH2 0x14F JUMPI POP PUSH1 0x12 PUSH1 0xFF AND DUP3 PUSH1 0xFF AND GT ISZERO JUMPDEST PUSH2 0x18E JUMPI PUSH1 0x40 MLOAD PUSH32 0x8C379A000000000000000000000000000000000000000000000000000000000 DUP2 MSTORE PUSH1 0x4 ADD PUSH2 0x185 SWAP1 PUSH2 0x667 JUMP JUMPDEST PUSH1 0x40 MLOAD DUP1 SWAP2 SUB SWAP1 REVERT JUMPDEST PUSH1 0x0 DUP3 PUSH1 0xFF AND PUSH1 0xA PUSH2 0x1A0 SWAP2 SWAP1 PUSH2 0x755 JUMP JUMPDEST SWAP1 POP PUSH1 0x0 DUP6 PUSH20 0xFFFFFFFFFFFFFFFFFFFFFFFFFFFFFFFFFFFFFFFF AND PUSH4 0xFEAF968C PUSH1 0x40 MLOAD DUP2 PUSH4 0xFFFFFFFF AND PUSH1 0xE0 SHL DUP2 MSTORE PUSH1 0x4 ADD PUSH1 0xA0 PUSH1 0x40 MLOAD DUP1 DUP4 SUB DUP2 DUP7 DUP1 EXTCODESIZE ISZERO DUP1 ISZERO PUSH2 0x1EA JUMPI PUSH1 0x0 DUP1 REVERT JUMPDEST POP GAS STATICCALL ISZERO DUP1 ISZERO PUSH2 0x1FE JUMPI RETURNDATASIZE PUSH1 0x0 DUP1 RETURNDATACOPY RETURNDATASIZE PUSH1 0x0 REVERT JUMPDEST POP POP POP POP PUSH1 0x40 MLOAD RETURNDATASIZE PUSH1 0x1F NOT PUSH1 0x1F DUP3 ADD AND DUP3 ADD DUP1 PUSH1 0x40 MSTORE POP DUP2 ADD SWAP1 PUSH2 0x222 SWAP2 SWAP1 PUSH2 0x572 JUMP JUMPDEST POP POP POP SWAP2 POP POP PUSH1 0x0 DUP7 PUSH20 0xFFFFFFFFFFFFFFFFFFFFFFFFFFFFFFFFFFFFFFFF AND PUSH4 0x313CE567 PUSH1 0x40 MLOAD DUP2 PUSH4 0xFFFFFFFF AND PUSH1 0xE0 SHL DUP2 MSTORE PUSH1 0x4 ADD PUSH1 0x20 PUSH1 0x40 MLOAD DUP1 DUP4 SUB DUP2 DUP7 DUP1 EXTCODESIZE ISZERO DUP1 ISZERO PUSH2 0x270 JUMPI PUSH1 0x0 DUP1 REVERT JUMPDEST POP GAS STATICCALL ISZERO DUP1 ISZERO PUSH2 0x284 JUMPI RETURNDATASIZE PUSH1 0x0 DUP1 RETURNDATACOPY RETURNDATASIZE PUSH1 0x0 REVERT JUMPDEST POP POP POP POP PUSH1 0x40 MLOAD RETURNDATASIZE PUSH1 0x1F NOT PUSH1 0x1F DUP3 ADD AND DUP3 ADD DUP1 PUSH1 0x40 MSTORE POP DUP2 ADD SWAP1 PUSH2 0x2A8 SWAP2 SWAP1 PUSH2 0x5ED JUMP JUMPDEST SWAP1 POP PUSH2 0x2B5 DUP3 DUP3 DUP8 PUSH2 0x3F1 JUMP JUMPDEST SWAP2 POP PUSH1 0x0 DUP7 PUSH20 0xFFFFFFFFFFFFFFFFFFFFFFFFFFFFFFFFFFFFFFFF AND PUSH4 0xFEAF968C PUSH1 0x40 MLOAD DUP2 PUSH4 0xFFFFFFFF AND PUSH1 0xE0 SHL DUP2 MSTORE PUSH1 0x4 ADD PUSH1 0xA0 PUSH1 0x40 MLOAD DUP1 DUP4 SUB DUP2 DUP7 DUP1 EXTCODESIZE ISZERO DUP1 ISZERO PUSH2 0x2FF JUMPI PUSH1 0x0 DUP1 REVERT JUMPDEST POP GAS STATICCALL ISZERO DUP1 ISZERO PUSH2 0x313 JUMPI RETURNDATASIZE PUSH1 0x0 DUP1 RETURNDATACOPY RETURNDATASIZE PUSH1 0x0 REVERT JUMPDEST POP POP POP POP PUSH1 0x40 MLOAD RETURNDATASIZE PUSH1 0x1F NOT PUSH1 0x1F DUP3 ADD AND DUP3 ADD DUP1 PUSH1 0x40 MSTORE POP DUP2 ADD SWAP1 PUSH2 0x337 SWAP2 SWAP1 PUSH2 0x572 JUMP JUMPDEST POP POP POP SWAP2 POP POP PUSH1 0x0 DUP8 PUSH20 0xFFFFFFFFFFFFFFFFFFFFFFFFFFFFFFFFFFFFFFFF AND PUSH4 0x313CE567 PUSH1 0x40 MLOAD DUP2 PUSH4 0xFFFFFFFF AND PUSH1 0xE0 SHL DUP2 MSTORE PUSH1 0x4 ADD PUSH1 0x20 PUSH1 0x40 MLOAD DUP1 DUP4 SUB DUP2 DUP7 DUP1 EXTCODESIZE ISZERO DUP1 ISZERO PUSH2 0x385 JUMPI PUSH1 0x0 DUP1 REVERT JUMPDEST POP GAS STATICCALL ISZERO DUP1 ISZERO PUSH2 0x399 JUMPI RETURNDATASIZE PUSH1 0x0 DUP1 RETURNDATACOPY RETURNDATASIZE PUSH1 0x0 REVERT JUMPDEST POP POP POP POP PUSH1 0x40 MLOAD RETURNDATASIZE PUSH1 0x1F NOT PUSH1 0x1F DUP3 ADD AND DUP3 ADD DUP1 PUSH1 0x40 MSTORE POP DUP2 ADD SWAP1 PUSH2 0x3BD SWAP2 SWAP1 PUSH2 0x5ED JUMP JUMPDEST SWAP1 POP PUSH2 0x3CA DUP3 DUP3 DUP10 PUSH2 0x3F1 JUMP JUMPDEST SWAP2 POP DUP2 DUP6 DUP6 PUSH2 0x3D9 SWAP2 SWAP1 PUSH2 0x873 JUMP JUMPDEST PUSH2 0x3E3 SWAP2 SWAP1 PUSH2 0x698 JUMP JUMPDEST SWAP6 POP POP POP POP POP POP SWAP4 SWAP3 POP POP POP JUMP JUMPDEST PUSH1 0x0 DUP2 PUSH1 0xFF AND DUP4 PUSH1 0xFF AND LT ISZERO PUSH2 0x42E JUMPI DUP3 DUP3 PUSH2 0x40D SWAP2 SWAP1 PUSH2 0x98A JUMP JUMPDEST PUSH1 0xFF AND PUSH1 0xA PUSH2 0x41C SWAP2 SWAP1 PUSH2 0x755 JUMP JUMPDEST DUP5 PUSH2 0x427 SWAP2 SWAP1 PUSH2 0x873 JUMP JUMPDEST SWAP1 POP PUSH2 0x46D JUMP JUMPDEST DUP2 PUSH1 0xFF AND DUP4 PUSH1 0xFF AND GT ISZERO PUSH2 0x469 JUMPI DUP2 DUP4 PUSH2 0x448 SWAP2 SWAP1 PUSH2 0x98A JUMP JUMPDEST PUSH1 0xFF AND PUSH1 0xA PUSH2 0x457 SWAP2 SWAP1 PUSH2 0x755 JUMP JUMPDEST DUP5 PUSH2 0x462 SWAP2 SWAP1 PUSH2 0x698 JUMP JUMPDEST SWAP1 POP PUSH2 0x46D JUMP JUMPDEST DUP4 SWAP1 POP JUMPDEST SWAP4 SWAP3 POP POP POP JUMP JUMPDEST PUSH1 0x0 DUP2 CALLDATALOAD SWAP1 POP PUSH2 0x483 DUP2 PUSH2 0xAC0 JUMP JUMPDEST SWAP3 SWAP2 POP POP JUMP JUMPDEST PUSH1 0x0 DUP2 MLOAD SWAP1 POP PUSH2 0x498 DUP2 PUSH2 0xAD7 JUMP JUMPDEST SWAP3 SWAP2 POP POP JUMP JUMPDEST PUSH1 0x0 DUP2 MLOAD SWAP1 POP PUSH2 0x4AD DUP2 PUSH2 0xAEE JUMP JUMPDEST SWAP3 SWAP2 POP POP JUMP JUMPDEST PUSH1 0x0 DUP2 CALLDATALOAD SWAP1 POP PUSH2 0x4C2 DUP2 PUSH2 0xB05 JUMP JUMPDEST SWAP3 SWAP2 POP POP JUMP JUMPDEST PUSH1 0x0 DUP2 MLOAD SWAP1 POP PUSH2 0x4D7 DUP2 PUSH2 0xB1C JUMP JUMPDEST SWAP3 SWAP2 POP POP JUMP JUMPDEST PUSH1 0x0 DUP2 MLOAD SWAP1 POP PUSH2 0x4EC DUP2 PUSH2 0xB05 JUMP JUMPDEST SWAP3 SWAP2 POP POP JUMP JUMPDEST PUSH1 0x0 PUSH1 0x20 DUP3 DUP5 SUB SLT ISZERO PUSH2 0x508 JUMPI PUSH2 0x507 PUSH2 0xA85 JUMP JUMPDEST JUMPDEST PUSH1 0x0 PUSH2 0x516 DUP5 DUP3 DUP6 ADD PUSH2 0x474 JUMP JUMPDEST SWAP2 POP POP SWAP3 SWAP2 POP POP JUMP JUMPDEST PUSH1 0x0 DUP1 PUSH1 0x0 PUSH1 0x60 DUP5 DUP7 SUB SLT ISZERO PUSH2 0x538 JUMPI PUSH2 0x537 PUSH2 0xA85 JUMP JUMPDEST JUMPDEST PUSH1 0x0 PUSH2 0x546 DUP7 DUP3 DUP8 ADD PUSH2 0x474 JUMP JUMPDEST SWAP4 POP POP PUSH1 0x20 PUSH2 0x557 DUP7 DUP3 DUP8 ADD PUSH2 0x474 JUMP JUMPDEST SWAP3 POP POP PUSH1 0x40 PUSH2 0x568 DUP7 DUP3 DUP8 ADD PUSH2 0x4B3 JUMP JUMPDEST SWAP2 POP POP SWAP3 POP SWAP3 POP SWAP3 JUMP JUMPDEST PUSH1 0x0 DUP1 PUSH1 0x0 DUP1 PUSH1 0x0 PUSH1 0xA0 DUP7 DUP9 SUB SLT ISZERO PUSH2 0x58E JUMPI PUSH2 0x58D PUSH2 0xA85 JUMP JUMPDEST JUMPDEST PUSH1 0x0 PUSH2 0x59C DUP9 DUP3 DUP10 ADD PUSH2 0x4C8 JUMP JUMPDEST SWAP6 POP POP PUSH1 0x20 PUSH2 0x5AD DUP9 DUP3 DUP10 ADD PUSH2 0x489 JUMP JUMPDEST SWAP5 POP POP PUSH1 0x40 PUSH2 0x5BE DUP9 DUP3 DUP10 ADD PUSH2 0x49E JUMP JUMPDEST SWAP4 POP POP PUSH1 0x60 PUSH2 0x5CF DUP9 DUP3 DUP10 ADD PUSH2 0x49E JUMP JUMPDEST SWAP3 POP POP PUSH1 0x80 PUSH2 0x5E0 DUP9 DUP3 DUP10 ADD PUSH2 0x4C8 JUMP JUMPDEST SWAP2 POP POP SWAP3 SWAP6 POP SWAP3 SWAP6 SWAP1 SWAP4 POP JUMP JUMPDEST PUSH1 0x0 PUSH1 0x20 DUP3 DUP5 SUB SLT ISZERO PUSH2 0x603 JUMPI PUSH2 0x602 PUSH2 0xA85 JUMP JUMPDEST JUMPDEST PUSH1 0x0 PUSH2 0x611 DUP5 DUP3 DUP6 ADD PUSH2 0x4DD JUMP JUMPDEST SWAP2 POP POP SWAP3 SWAP2 POP POP JUMP JUMPDEST PUSH2 0x623 DUP2 PUSH2 0x9D0 JUMP JUMPDEST DUP3 MSTORE POP POP JUMP JUMPDEST PUSH1 0x0 PUSH2 0x636 PUSH1 0x11 DUP4 PUSH2 0x687 JUMP JUMPDEST SWAP2 POP PUSH2 0x641 DUP3 PUSH2 0xA97 JUMP JUMPDEST PUSH1 0x20 DUP3 ADD SWAP1 POP SWAP2 SWAP1 POP JUMP JUMPDEST PUSH1 0x0 PUSH1 0x20 DUP3 ADD SWAP1 POP PUSH2 0x661 PUSH1 0x0 DUP4 ADD DUP5 PUSH2 0x61A JUMP JUMPDEST SWAP3 SWAP2 POP POP JUMP JUMPDEST PUSH1 0x0 PUSH1 0x20 DUP3 ADD SWAP1 POP DUP2 DUP2 SUB PUSH1 0x0 DUP4 ADD MSTORE PUSH2 0x680 DUP2 PUSH2 0x629 JUMP JUMPDEST SWAP1 POP SWAP2 SWAP1 POP JUMP JUMPDEST PUSH1 0x0 DUP3 DUP3 MSTORE PUSH1 0x20 DUP3 ADD SWAP1 POP SWAP3 SWAP2 POP POP JUMP JUMPDEST PUSH1 0x0 PUSH2 0x6A3 DUP3 PUSH2 0x9D0 JUMP JUMPDEST SWAP2 POP PUSH2 0x6AE DUP4 PUSH2 0x9D0 JUMP JUMPDEST SWAP3 POP DUP3 PUSH2 0x6BE JUMPI PUSH2 0x6BD PUSH2 0xA56 JUMP JUMPDEST JUMPDEST PUSH1 0x1 PUSH1 0x0 SUB DUP4 EQ PUSH32 0x8000000000000000000000000000000000000000000000000000000000000000 DUP4 EQ AND ISZERO PUSH2 0x6F7 JUMPI PUSH2 0x6F6 PUSH2 0xA27 JUMP JUMPDEST JUMPDEST DUP3 DUP3 SDIV SWAP1 POP SWAP3 SWAP2 POP POP JUMP JUMPDEST PUSH1 0x0 DUP1 DUP3 SWAP2 POP DUP4 SWAP1 POP JUMPDEST PUSH1 0x1 DUP6 GT ISZERO PUSH2 0x74C JUMPI DUP1 DUP7 DIV DUP2 GT ISZERO PUSH2 0x728 JUMPI PUSH2 0x727 PUSH2 0xA27 JUMP JUMPDEST JUMPDEST PUSH1 0x1 DUP6 AND ISZERO PUSH2 0x737 JUMPI DUP1 DUP3 MUL SWAP2 POP JUMPDEST DUP1 DUP2 MUL SWAP1 POP PUSH2 0x745 DUP6 PUSH2 0xA8A JUMP JUMPDEST SWAP5 POP PUSH2 0x70C JUMP JUMPDEST SWAP5 POP SWAP5 SWAP3 POP POP POP JUMP JUMPDEST PUSH1 0x0 PUSH2 0x760 DUP3 PUSH2 0x9FA JUMP JUMPDEST SWAP2 POP PUSH2 0x76B DUP4 PUSH2 0x9FA JUMP JUMPDEST SWAP3 POP PUSH2 0x798 PUSH32 0xFFFFFFFFFFFFFFFFFFFFFFFFFFFFFFFFFFFFFFFFFFFFFFFFFFFFFFFFFFFFFFFF DUP5 DUP5 PUSH2 0x7A0 JUMP JUMPDEST SWAP1 POP SWAP3 SWAP2 POP POP JUMP JUMPDEST PUSH1 0x0 DUP3 PUSH2 0x7B0 JUMPI PUSH1 0x1 SWAP1 POP PUSH2 0x86C JUMP JUMPDEST DUP2 PUSH2 0x7BE JUMPI PUSH1 0x0 SWAP1 POP PUSH2 0x86C JUMP JUMPDEST DUP2 PUSH1 0x1 DUP2 EQ PUSH2 0x7D4 JUMPI PUSH1 0x2 DUP2 EQ PUSH2 0x7DE JUMPI PUSH2 0x80D JUMP JUMPDEST PUSH1 0x1 SWAP2 POP POP PUSH2 0x86C JUMP JUMPDEST PUSH1 0xFF DUP5 GT ISZERO PUSH2 0x7F0 JUMPI PUSH2 0x7EF PUSH2 0xA27 JUMP JUMPDEST JUMPDEST DUP4 PUSH1 0x2 EXP SWAP2 POP DUP5 DUP3 GT ISZERO PUSH2 0x807 JUMPI PUSH2 0x806 PUSH2 0xA27 JUMP JUMPDEST JUMPDEST POP PUSH2 0x86C JUMP JUMPDEST POP PUSH1 0x20 DUP4 LT PUSH2 0x133 DUP4 LT AND PUSH1 0x4E DUP5 LT PUSH1 0xB DUP5 LT AND OR ISZERO PUSH2 0x842 JUMPI DUP3 DUP3 EXP SWAP1 POP DUP4 DUP2 GT ISZERO PUSH2 0x83D JUMPI PUSH2 0x83C PUSH2 0xA27 JUMP JUMPDEST JUMPDEST PUSH2 0x86C JUMP JUMPDEST PUSH2 0x84F DUP5 DUP5 DUP5 PUSH1 0x1 PUSH2 0x702 JUMP JUMPDEST SWAP3 POP SWAP1 POP DUP2 DUP5 DIV DUP2 GT ISZERO PUSH2 0x866 JUMPI PUSH2 0x865 PUSH2 0xA27 JUMP JUMPDEST JUMPDEST DUP2 DUP2 MUL SWAP1 POP JUMPDEST SWAP4 SWAP3 POP POP POP JUMP JUMPDEST PUSH1 0x0 PUSH2 0x87E DUP3 PUSH2 0x9D0 JUMP JUMPDEST SWAP2 POP PUSH2 0x889 DUP4 PUSH2 0x9D0 JUMP JUMPDEST SWAP3 POP DUP3 PUSH32 0x7FFFFFFFFFFFFFFFFFFFFFFFFFFFFFFFFFFFFFFFFFFFFFFFFFFFFFFFFFFFFFFF DIV DUP3 GT PUSH1 0x0 DUP5 SGT PUSH1 0x0 DUP5 SGT AND AND ISZERO PUSH2 0x8C8 JUMPI PUSH2 0x8C7 PUSH2 0xA27 JUMP JUMPDEST JUMPDEST DUP2 PUSH32 0x8000000000000000000000000000000000000000000000000000000000000000 SDIV DUP4 SLT PUSH1 0x0 DUP5 SLT PUSH1 0x0 DUP5 SGT AND AND ISZERO PUSH2 0x905 JUMPI PUSH2 0x904 PUSH2 0xA27 JUMP JUMPDEST JUMPDEST DUP3 PUSH32 0x8000000000000000000000000000000000000000000000000000000000000000 SDIV DUP3 SLT PUSH1 0x0 DUP5 SGT PUSH1 0x0 DUP5 SLT AND AND ISZERO PUSH2 0x942 JUMPI PUSH2 0x941 PUSH2 0xA27 JUMP JUMPDEST JUMPDEST DUP3 PUSH32 0x7FFFFFFFFFFFFFFFFFFFFFFFFFFFFFFFFFFFFFFFFFFFFFFFFFFFFFFFFFFFFFFF SDIV DUP3 SLT PUSH1 0x0 DUP5 SLT PUSH1 0x0 DUP5 SLT AND AND ISZERO PUSH2 0x97F JUMPI PUSH2 0x97E PUSH2 0xA27 JUMP JUMPDEST JUMPDEST DUP3 DUP3 MUL SWAP1 POP SWAP3 SWAP2 POP POP JUMP JUMPDEST PUSH1 0x0 PUSH2 0x995 DUP3 PUSH2 0xA04 JUMP JUMPDEST SWAP2 POP PUSH2 0x9A0 DUP4 PUSH2 0xA04 JUMP JUMPDEST SWAP3 POP DUP3 DUP3 LT ISZERO PUSH2 0x9B3 JUMPI PUSH2 0x9B2 PUSH2 0xA27 JUMP JUMPDEST JUMPDEST DUP3 DUP3 SUB SWAP1 POP SWAP3 SWAP2 POP POP JUMP JUMPDEST PUSH1 0x0 PUSH2 0x9C9 DUP3 PUSH2 0x9DA JUMP JUMPDEST SWAP1 POP SWAP2 SWAP1 POP JUMP JUMPDEST PUSH1 0x0 DUP2 SWAP1 POP SWAP2 SWAP1 POP JUMP JUMPDEST PUSH1 0x0 PUSH20 0xFFFFFFFFFFFFFFFFFFFFFFFFFFFFFFFFFFFFFFFF DUP3 AND SWAP1 POP SWAP2 SWAP1 POP JUMP JUMPDEST PUSH1 0x0 DUP2 SWAP1 POP SWAP2 SWAP1 POP JUMP JUMPDEST PUSH1 0x0 PUSH1 0xFF DUP3 AND SWAP1 POP SWAP2 SWAP1 POP JUMP JUMPDEST PUSH1 0x0 PUSH10 0xFFFFFFFFFFFFFFFFFFFF DUP3 AND SWAP1 POP SWAP2 SWAP1 POP JUMP JUMPDEST PUSH32 0x4E487B7100000000000000000000000000000000000000000000000000000000 PUSH1 0x0 MSTORE PUSH1 0x11 PUSH1 0x4 MSTORE PUSH1 0x24 PUSH1 0x0 REVERT JUMPDEST PUSH32 0x4E487B7100000000000000000000000000000000000000000000000000000000 PUSH1 0x0 MSTORE PUSH1 0x12 PUSH1 0x4 MSTORE PUSH1 0x24 PUSH1 0x0 REVERT JUMPDEST PUSH1 0x0 DUP1 REVERT JUMPDEST PUSH1 0x0 DUP2 PUSH1 0x1 SHR SWAP1 POP SWAP2 SWAP1 POP JUMP JUMPDEST PUSH32 0x496E76616C6964205F646563696D616C73000000000000000000000000000000 PUSH1 0x0 DUP3 ADD MSTORE POP JUMP JUMPDEST PUSH2 0xAC9 DUP2 PUSH2 0x9BE JUMP JUMPDEST DUP2 EQ PUSH2 0xAD4 JUMPI PUSH1 0x0 DUP1 REVERT JUMPDEST POP JUMP JUMPDEST PUSH2 0xAE0 DUP2 PUSH2 0x9D0 JUMP JUMPDEST DUP2 EQ PUSH2 0xAEB JUMPI PUSH1 0x0 DUP1 REVERT JUMPDEST POP JUMP JUMPDEST PUSH2 0xAF7 DUP2 PUSH2 0x9FA JUMP JUMPDEST DUP2 EQ PUSH2 0xB02 JUMPI PUSH1 0x0 DUP1 REVERT JUMPDEST POP JUMP JUMPDEST PUSH2 0xB0E DUP2 PUSH2 0xA04 JUMP JUMPDEST DUP2 EQ PUSH2 0xB19 JUMPI PUSH1 0x0 DUP1 REVERT JUMPDEST POP JUMP JUMPDEST PUSH2 0xB25 DUP2 PUSH2 0xA11 JUMP JUMPDEST DUP2 EQ PUSH2 0xB30 JUMPI PUSH1 0x0 DUP1 REVERT JUMPDEST POP JUMP INVALID LOG2 PUSH5 0x6970667358 0x22 SLT KECCAK256 LOG3 CALLVALUE KECCAK256 PUSH11 0x7EA01525CEB746CFC3E567 NOT 0xDB 0x5E PUSH29 0xFD81AA7570BD1546AC257C83B364736F6C634300080700330000000000 "
        },
        "methodIdentifiers": {
          "getDerivedPrice(address,address,uint8)": "97436655",
          "getLatestPrice(address)": "16345f18"
        }
      }
    }
  }
}