{
  "contracts/PriceConverter.sol": {
    "PriceConverter": {
      "abi": [
        {
          "inputs": [
            {
              "internalType": "address",
              "name": "_base",
              "type": "address"
            },
            {
              "internalType": "address",
              "name": "_quote",
              "type": "address"
            },
            {
              "internalType": "uint8",
              "name": "_decimals",
              "type": "uint8"
            }
          ],
          "name": "getDerivedPrice",
          "outputs": [
            {
              "internalType": "int256",
              "name": "",
              "type": "int256"
            }
          ],
          "stateMutability": "view",
          "type": "function"
        }
      ],
      "evm": {
        "bytecode": {
          "linkReferences": {},
          "object": "608060405234801561001057600080fd5b50610a6b806100206000396000f3fe608060405234801561001057600080fd5b506004361061002b5760003560e01c80639743665514610030575b600080fd5b61004a60048036038101906100459190610421565b610060565b604051610057919061054e565b60405180910390f35b60008060ff168260ff1611801561007e5750601260ff168260ff1611155b6100bd576040517f08c379a00000000000000000000000000000000000000000000000000000000081526004016100b490610569565b60405180910390fd5b60008260ff16600a6100cf9190610657565b905060008573ffffffffffffffffffffffffffffffffffffffff1663feaf968c6040518163ffffffff1660e01b815260040160a06040518083038186803b15801561011957600080fd5b505afa15801561012d573d6000803e3d6000fd5b505050506040513d601f19601f820116820180604052508101906101519190610474565b50505091505060008673ffffffffffffffffffffffffffffffffffffffff1663313ce5676040518163ffffffff1660e01b815260040160206040518083038186803b15801561019f57600080fd5b505afa1580156101b3573d6000803e3d6000fd5b505050506040513d601f19601f820116820180604052508101906101d791906104ef565b90506101e4828287610320565b915060008673ffffffffffffffffffffffffffffffffffffffff1663feaf968c6040518163ffffffff1660e01b815260040160a06040518083038186803b15801561022e57600080fd5b505afa158015610242573d6000803e3d6000fd5b505050506040513d601f19601f820116820180604052508101906102669190610474565b50505091505060008773ffffffffffffffffffffffffffffffffffffffff1663313ce5676040518163ffffffff1660e01b815260040160206040518083038186803b1580156102b457600080fd5b505afa1580156102c8573d6000803e3d6000fd5b505050506040513d601f19601f820116820180604052508101906102ec91906104ef565b90506102f9828289610320565b91508185856103089190610775565b610312919061059a565b955050505050509392505050565b60008160ff168360ff16101561035d57828261033c919061088c565b60ff16600a61034b9190610657565b846103569190610775565b905061039c565b8160ff168360ff161115610398578183610377919061088c565b60ff16600a6103869190610657565b84610391919061059a565b905061039c565b8390505b9392505050565b6000813590506103b2816109c2565b92915050565b6000815190506103c7816109d9565b92915050565b6000815190506103dc816109f0565b92915050565b6000813590506103f181610a07565b92915050565b60008151905061040681610a1e565b92915050565b60008151905061041b81610a07565b92915050565b60008060006060848603121561043a57610439610987565b5b6000610448868287016103a3565b9350506020610459868287016103a3565b925050604061046a868287016103e2565b9150509250925092565b600080600080600060a086880312156104905761048f610987565b5b600061049e888289016103f7565b95505060206104af888289016103b8565b94505060406104c0888289016103cd565b93505060606104d1888289016103cd565b92505060806104e2888289016103f7565b9150509295509295909350565b60006020828403121561050557610504610987565b5b60006105138482850161040c565b91505092915050565b610525816108d2565b82525050565b6000610538601183610589565b915061054382610999565b602082019050919050565b6000602082019050610563600083018461051c565b92915050565b600060208201905081810360008301526105828161052b565b9050919050565b600082825260208201905092915050565b60006105a5826108d2565b91506105b0836108d2565b9250826105c0576105bf610958565b5b600160000383147f8000000000000000000000000000000000000000000000000000000000000000831416156105f9576105f8610929565b5b828205905092915050565b6000808291508390505b600185111561064e5780860481111561062a57610629610929565b5b60018516156106395780820291505b80810290506106478561098c565b945061060e565b94509492505050565b6000610662826108fc565b915061066d836108fc565b925061069a7fffffffffffffffffffffffffffffffffffffffffffffffffffffffffffffffff84846106a2565b905092915050565b6000826106b2576001905061076e565b816106c0576000905061076e565b81600181146106d657600281146106e05761070f565b600191505061076e565b60ff8411156106f2576106f1610929565b5b8360020a91508482111561070957610708610929565b5b5061076e565b5060208310610133831016604e8410600b84101617156107445782820a90508381111561073f5761073e610929565b5b61076e565b6107518484846001610604565b9250905081840481111561076857610767610929565b5b81810290505b9392505050565b6000610780826108d2565b915061078b836108d2565b9250827f7fffffffffffffffffffffffffffffffffffffffffffffffffffffffffffffff04821160008413600084131616156107ca576107c9610929565b5b817f8000000000000000000000000000000000000000000000000000000000000000058312600084126000841316161561080757610806610929565b5b827f8000000000000000000000000000000000000000000000000000000000000000058212600084136000841216161561084457610843610929565b5b827f7fffffffffffffffffffffffffffffffffffffffffffffffffffffffffffffff058212600084126000841216161561088157610880610929565b5b828202905092915050565b600061089782610906565b91506108a283610906565b9250828210156108b5576108b4610929565b5b828203905092915050565b60006108cb826108dc565b9050919050565b6000819050919050565b600073ffffffffffffffffffffffffffffffffffffffff82169050919050565b6000819050919050565b600060ff82169050919050565b600069ffffffffffffffffffff82169050919050565b7f4e487b7100000000000000000000000000000000000000000000000000000000600052601160045260246000fd5b7f4e487b7100000000000000000000000000000000000000000000000000000000600052601260045260246000fd5b600080fd5b60008160011c9050919050565b7f496e76616c6964205f646563696d616c73000000000000000000000000000000600082015250565b6109cb816108c0565b81146109d657600080fd5b50565b6109e2816108d2565b81146109ed57600080fd5b50565b6109f9816108fc565b8114610a0457600080fd5b50565b610a1081610906565b8114610a1b57600080fd5b50565b610a2781610913565b8114610a3257600080fd5b5056fea264697066735822122056a6e5318080ab8d39fa1ffb1fb11d0ec4f7ca889d578045ed95f71ebbc9a9b864736f6c63430008070033",
          "opcodes": "PUSH1 0x80 PUSH1 0x40 MSTORE CALLVALUE DUP1 ISZERO PUSH2 0x10 JUMPI PUSH1 0x0 DUP1 REVERT JUMPDEST POP PUSH2 0xA6B DUP1 PUSH2 0x20 PUSH1 0x0 CODECOPY PUSH1 0x0 RETURN INVALID PUSH1 0x80 PUSH1 0x40 MSTORE CALLVALUE DUP1 ISZERO PUSH2 0x10 JUMPI PUSH1 0x0 DUP1 REVERT JUMPDEST POP PUSH1 0x4 CALLDATASIZE LT PUSH2 0x2B JUMPI PUSH1 0x0 CALLDATALOAD PUSH1 0xE0 SHR DUP1 PUSH4 0x97436655 EQ PUSH2 0x30 JUMPI JUMPDEST PUSH1 0x0 DUP1 REVERT JUMPDEST PUSH2 0x4A PUSH1 0x4 DUP1 CALLDATASIZE SUB DUP2 ADD SWAP1 PUSH2 0x45 SWAP2 SWAP1 PUSH2 0x421 JUMP JUMPDEST PUSH2 0x60 JUMP JUMPDEST PUSH1 0x40 MLOAD PUSH2 0x57 SWAP2 SWAP1 PUSH2 0x54E JUMP JUMPDEST PUSH1 0x40 MLOAD DUP1 SWAP2 SUB SWAP1 RETURN JUMPDEST PUSH1 0x0 DUP1 PUSH1 0xFF AND DUP3 PUSH1 0xFF AND GT DUP1 ISZERO PUSH2 0x7E JUMPI POP PUSH1 0x12 PUSH1 0xFF AND DUP3 PUSH1 0xFF AND GT ISZERO JUMPDEST PUSH2 0xBD JUMPI PUSH1 0x40 MLOAD PUSH32 0x8C379A000000000000000000000000000000000000000000000000000000000 DUP2 MSTORE PUSH1 0x4 ADD PUSH2 0xB4 SWAP1 PUSH2 0x569 JUMP JUMPDEST PUSH1 0x40 MLOAD DUP1 SWAP2 SUB SWAP1 REVERT JUMPDEST PUSH1 0x0 DUP3 PUSH1 0xFF AND PUSH1 0xA PUSH2 0xCF SWAP2 SWAP1 PUSH2 0x657 JUMP JUMPDEST SWAP1 POP PUSH1 0x0 DUP6 PUSH20 0xFFFFFFFFFFFFFFFFFFFFFFFFFFFFFFFFFFFFFFFF AND PUSH4 0xFEAF968C PUSH1 0x40 MLOAD DUP2 PUSH4 0xFFFFFFFF AND PUSH1 0xE0 SHL DUP2 MSTORE PUSH1 0x4 ADD PUSH1 0xA0 PUSH1 0x40 MLOAD DUP1 DUP4 SUB DUP2 DUP7 DUP1 EXTCODESIZE ISZERO DUP1 ISZERO PUSH2 0x119 JUMPI PUSH1 0x0 DUP1 REVERT JUMPDEST POP GAS STATICCALL ISZERO DUP1 ISZERO PUSH2 0x12D JUMPI RETURNDATASIZE PUSH1 0x0 DUP1 RETURNDATACOPY RETURNDATASIZE PUSH1 0x0 REVERT JUMPDEST POP POP POP POP PUSH1 0x40 MLOAD RETURNDATASIZE PUSH1 0x1F NOT PUSH1 0x1F DUP3 ADD AND DUP3 ADD DUP1 PUSH1 0x40 MSTORE POP DUP2 ADD SWAP1 PUSH2 0x151 SWAP2 SWAP1 PUSH2 0x474 JUMP JUMPDEST POP POP POP SWAP2 POP POP PUSH1 0x0 DUP7 PUSH20 0xFFFFFFFFFFFFFFFFFFFFFFFFFFFFFFFFFFFFFFFF AND PUSH4 0x313CE567 PUSH1 0x40 MLOAD DUP2 PUSH4 0xFFFFFFFF AND PUSH1 0xE0 SHL DUP2 MSTORE PUSH1 0x4 ADD PUSH1 0x20 PUSH1 0x40 MLOAD DUP1 DUP4 SUB DUP2 DUP7 DUP1 EXTCODESIZE ISZERO DUP1 ISZERO PUSH2 0x19F JUMPI PUSH1 0x0 DUP1 REVERT JUMPDEST POP GAS STATICCALL ISZERO DUP1 ISZERO PUSH2 0x1B3 JUMPI RETURNDATASIZE PUSH1 0x0 DUP1 RETURNDATACOPY RETURNDATASIZE PUSH1 0x0 REVERT JUMPDEST POP POP POP POP PUSH1 0x40 MLOAD RETURNDATASIZE PUSH1 0x1F NOT PUSH1 0x1F DUP3 ADD AND DUP3 ADD DUP1 PUSH1 0x40 MSTORE POP DUP2 ADD SWAP1 PUSH2 0x1D7 SWAP2 SWAP1 PUSH2 0x4EF JUMP JUMPDEST SWAP1 POP PUSH2 0x1E4 DUP3 DUP3 DUP8 PUSH2 0x320 JUMP JUMPDEST SWAP2 POP PUSH1 0x0 DUP7 PUSH20 0xFFFFFFFFFFFFFFFFFFFFFFFFFFFFFFFFFFFFFFFF AND PUSH4 0xFEAF968C PUSH1 0x40 MLOAD DUP2 PUSH4 0xFFFFFFFF AND PUSH1 0xE0 SHL DUP2 MSTORE PUSH1 0x4 ADD PUSH1 0xA0 PUSH1 0x40 MLOAD DUP1 DUP4 SUB DUP2 DUP7 DUP1 EXTCODESIZE ISZERO DUP1 ISZERO PUSH2 0x22E JUMPI PUSH1 0x0 DUP1 REVERT JUMPDEST POP GAS STATICCALL ISZERO DUP1 ISZERO PUSH2 0x242 JUMPI RETURNDATASIZE PUSH1 0x0 DUP1 RETURNDATACOPY RETURNDATASIZE PUSH1 0x0 REVERT JUMPDEST POP POP POP POP PUSH1 0x40 MLOAD RETURNDATASIZE PUSH1 0x1F NOT PUSH1 0x1F DUP3 ADD AND DUP3 ADD DUP1 PUSH1 0x40 MSTORE POP DUP2 ADD SWAP1 PUSH2 0x266 SWAP2 SWAP1 PUSH2 0x474 JUMP JUMPDEST POP POP POP SWAP2 POP POP PUSH1 0x0 DUP8 PUSH20 0xFFFFFFFFFFFFFFFFFFFFFFFFFFFFFFFFFFFFFFFF AND PUSH4 0x313CE567 PUSH1 0x40 MLOAD DUP2 PUSH4 0xFFFFFFFF AND PUSH1 0xE0 SHL DUP2 MSTORE PUSH1 0x4 ADD PUSH1 0x20 PUSH1 0x40 MLOAD DUP1 DUP4 SUB DUP2 DUP7 DUP1 EXTCODESIZE ISZERO DUP1 ISZERO PUSH2 0x2B4 JUMPI PUSH1 0x0 DUP1 REVERT JUMPDEST POP GAS STATICCALL ISZERO DUP1 ISZERO PUSH2 0x2C8 JUMPI RETURNDATASIZE PUSH1 0x0 DUP1 RETURNDATACOPY RETURNDATASIZE PUSH1 0x0 REVERT JUMPDEST POP POP POP POP PUSH1 0x40 MLOAD RETURNDATASIZE PUSH1 0x1F NOT PUSH1 0x1F DUP3 ADD AND DUP3 ADD DUP1 PUSH1 0x40 MSTORE POP DUP2 ADD SWAP1 PUSH2 0x2EC SWAP2 SWAP1 PUSH2 0x4EF JUMP JUMPDEST SWAP1 POP PUSH2 0x2F9 DUP3 DUP3 DUP10 PUSH2 0x320 JUMP JUMPDEST SWAP2 POP DUP2 DUP6 DUP6 PUSH2 0x308 SWAP2 SWAP1 PUSH2 0x775 JUMP JUMPDEST PUSH2 0x312 SWAP2 SWAP1 PUSH2 0x59A JUMP JUMPDEST SWAP6 POP POP POP POP POP POP SWAP4 SWAP3 POP POP POP JUMP JUMPDEST PUSH1 0x0 DUP2 PUSH1 0xFF AND DUP4 PUSH1 0xFF AND LT ISZERO PUSH2 0x35D JUMPI DUP3 DUP3 PUSH2 0x33C SWAP2 SWAP1 PUSH2 0x88C JUMP JUMPDEST PUSH1 0xFF AND PUSH1 0xA PUSH2 0x34B SWAP2 SWAP1 PUSH2 0x657 JUMP JUMPDEST DUP5 PUSH2 0x356 SWAP2 SWAP1 PUSH2 0x775 JUMP JUMPDEST SWAP1 POP PUSH2 0x39C JUMP JUMPDEST DUP2 PUSH1 0xFF AND DUP4 PUSH1 0xFF AND GT ISZERO PUSH2 0x398 JUMPI DUP2 DUP4 PUSH2 0x377 SWAP2 SWAP1 PUSH2 0x88C JUMP JUMPDEST PUSH1 0xFF AND PUSH1 0xA PUSH2 0x386 SWAP2 SWAP1 PUSH2 0x657 JUMP JUMPDEST DUP5 PUSH2 0x391 SWAP2 SWAP1 PUSH2 0x59A JUMP JUMPDEST SWAP1 POP PUSH2 0x39C JUMP JUMPDEST DUP4 SWAP1 POP JUMPDEST SWAP4 SWAP3 POP POP POP JUMP JUMPDEST PUSH1 0x0 DUP2 CALLDATALOAD SWAP1 POP PUSH2 0x3B2 DUP2 PUSH2 0x9C2 JUMP JUMPDEST SWAP3 SWAP2 POP POP JUMP JUMPDEST PUSH1 0x0 DUP2 MLOAD SWAP1 POP PUSH2 0x3C7 DUP2 PUSH2 0x9D9 JUMP JUMPDEST SWAP3 SWAP2 POP POP JUMP JUMPDEST PUSH1 0x0 DUP2 MLOAD SWAP1 POP PUSH2 0x3DC DUP2 PUSH2 0x9F0 JUMP JUMPDEST SWAP3 SWAP2 POP POP JUMP JUMPDEST PUSH1 0x0 DUP2 CALLDATALOAD SWAP1 POP PUSH2 0x3F1 DUP2 PUSH2 0xA07 JUMP JUMPDEST SWAP3 SWAP2 POP POP JUMP JUMPDEST PUSH1 0x0 DUP2 MLOAD SWAP1 POP PUSH2 0x406 DUP2 PUSH2 0xA1E JUMP JUMPDEST SWAP3 SWAP2 POP POP JUMP JUMPDEST PUSH1 0x0 DUP2 MLOAD SWAP1 POP PUSH2 0x41B DUP2 PUSH2 0xA07 JUMP JUMPDEST SWAP3 SWAP2 POP POP JUMP JUMPDEST PUSH1 0x0 DUP1 PUSH1 0x0 PUSH1 0x60 DUP5 DUP7 SUB SLT ISZERO PUSH2 0x43A JUMPI PUSH2 0x439 PUSH2 0x987 JUMP JUMPDEST JUMPDEST PUSH1 0x0 PUSH2 0x448 DUP7 DUP3 DUP8 ADD PUSH2 0x3A3 JUMP JUMPDEST SWAP4 POP POP PUSH1 0x20 PUSH2 0x459 DUP7 DUP3 DUP8 ADD PUSH2 0x3A3 JUMP JUMPDEST SWAP3 POP POP PUSH1 0x40 PUSH2 0x46A DUP7 DUP3 DUP8 ADD PUSH2 0x3E2 JUMP JUMPDEST SWAP2 POP POP SWAP3 POP SWAP3 POP SWAP3 JUMP JUMPDEST PUSH1 0x0 DUP1 PUSH1 0x0 DUP1 PUSH1 0x0 PUSH1 0xA0 DUP7 DUP9 SUB SLT ISZERO PUSH2 0x490 JUMPI PUSH2 0x48F PUSH2 0x987 JUMP JUMPDEST JUMPDEST PUSH1 0x0 PUSH2 0x49E DUP9 DUP3 DUP10 ADD PUSH2 0x3F7 JUMP JUMPDEST SWAP6 POP POP PUSH1 0x20 PUSH2 0x4AF DUP9 DUP3 DUP10 ADD PUSH2 0x3B8 JUMP JUMPDEST SWAP5 POP POP PUSH1 0x40 PUSH2 0x4C0 DUP9 DUP3 DUP10 ADD PUSH2 0x3CD JUMP JUMPDEST SWAP4 POP POP PUSH1 0x60 PUSH2 0x4D1 DUP9 DUP3 DUP10 ADD PUSH2 0x3CD JUMP JUMPDEST SWAP3 POP POP PUSH1 0x80 PUSH2 0x4E2 DUP9 DUP3 DUP10 ADD PUSH2 0x3F7 JUMP JUMPDEST SWAP2 POP POP SWAP3 SWAP6 POP SWAP3 SWAP6 SWAP1 SWAP4 POP JUMP JUMPDEST PUSH1 0x0 PUSH1 0x20 DUP3 DUP5 SUB SLT ISZERO PUSH2 0x505 JUMPI PUSH2 0x504 PUSH2 0x987 JUMP JUMPDEST JUMPDEST PUSH1 0x0 PUSH2 0x513 DUP5 DUP3 DUP6 ADD PUSH2 0x40C JUMP JUMPDEST SWAP2 POP POP SWAP3 SWAP2 POP POP JUMP JUMPDEST PUSH2 0x525 DUP2 PUSH2 0x8D2 JUMP JUMPDEST DUP3 MSTORE POP POP JUMP JUMPDEST PUSH1 0x0 PUSH2 0x538 PUSH1 0x11 DUP4 PUSH2 0x589 JUMP JUMPDEST SWAP2 POP PUSH2 0x543 DUP3 PUSH2 0x999 JUMP JUMPDEST PUSH1 0x20 DUP3 ADD SWAP1 POP SWAP2 SWAP1 POP JUMP JUMPDEST PUSH1 0x0 PUSH1 0x20 DUP3 ADD SWAP1 POP PUSH2 0x563 PUSH1 0x0 DUP4 ADD DUP5 PUSH2 0x51C JUMP JUMPDEST SWAP3 SWAP2 POP POP JUMP JUMPDEST PUSH1 0x0 PUSH1 0x20 DUP3 ADD SWAP1 POP DUP2 DUP2 SUB PUSH1 0x0 DUP4 ADD MSTORE PUSH2 0x582 DUP2 PUSH2 0x52B JUMP JUMPDEST SWAP1 POP SWAP2 SWAP1 POP JUMP JUMPDEST PUSH1 0x0 DUP3 DUP3 MSTORE PUSH1 0x20 DUP3 ADD SWAP1 POP SWAP3 SWAP2 POP POP JUMP JUMPDEST PUSH1 0x0 PUSH2 0x5A5 DUP3 PUSH2 0x8D2 JUMP JUMPDEST SWAP2 POP PUSH2 0x5B0 DUP4 PUSH2 0x8D2 JUMP JUMPDEST SWAP3 POP DUP3 PUSH2 0x5C0 JUMPI PUSH2 0x5BF PUSH2 0x958 JUMP JUMPDEST JUMPDEST PUSH1 0x1 PUSH1 0x0 SUB DUP4 EQ PUSH32 0x8000000000000000000000000000000000000000000000000000000000000000 DUP4 EQ AND ISZERO PUSH2 0x5F9 JUMPI PUSH2 0x5F8 PUSH2 0x929 JUMP JUMPDEST JUMPDEST DUP3 DUP3 SDIV SWAP1 POP SWAP3 SWAP2 POP POP JUMP JUMPDEST PUSH1 0x0 DUP1 DUP3 SWAP2 POP DUP4 SWAP1 POP JUMPDEST PUSH1 0x1 DUP6 GT ISZERO PUSH2 0x64E JUMPI DUP1 DUP7 DIV DUP2 GT ISZERO PUSH2 0x62A JUMPI PUSH2 0x629 PUSH2 0x929 JUMP JUMPDEST JUMPDEST PUSH1 0x1 DUP6 AND ISZERO PUSH2 0x639 JUMPI DUP1 DUP3 MUL SWAP2 POP JUMPDEST DUP1 DUP2 MUL SWAP1 POP PUSH2 0x647 DUP6 PUSH2 0x98C JUMP JUMPDEST SWAP5 POP PUSH2 0x60E JUMP JUMPDEST SWAP5 POP SWAP5 SWAP3 POP POP POP JUMP JUMPDEST PUSH1 0x0 PUSH2 0x662 DUP3 PUSH2 0x8FC JUMP JUMPDEST SWAP2 POP PUSH2 0x66D DUP4 PUSH2 0x8FC JUMP JUMPDEST SWAP3 POP PUSH2 0x69A PUSH32 0xFFFFFFFFFFFFFFFFFFFFFFFFFFFFFFFFFFFFFFFFFFFFFFFFFFFFFFFFFFFFFFFF DUP5 DUP5 PUSH2 0x6A2 JUMP JUMPDEST SWAP1 POP SWAP3 SWAP2 POP POP JUMP JUMPDEST PUSH1 0x0 DUP3 PUSH2 0x6B2 JUMPI PUSH1 0x1 SWAP1 POP PUSH2 0x76E JUMP JUMPDEST DUP2 PUSH2 0x6C0 JUMPI PUSH1 0x0 SWAP1 POP PUSH2 0x76E JUMP JUMPDEST DUP2 PUSH1 0x1 DUP2 EQ PUSH2 0x6D6 JUMPI PUSH1 0x2 DUP2 EQ PUSH2 0x6E0 JUMPI PUSH2 0x70F JUMP JUMPDEST PUSH1 0x1 SWAP2 POP POP PUSH2 0x76E JUMP JUMPDEST PUSH1 0xFF DUP5 GT ISZERO PUSH2 0x6F2 JUMPI PUSH2 0x6F1 PUSH2 0x929 JUMP JUMPDEST JUMPDEST DUP4 PUSH1 0x2 EXP SWAP2 POP DUP5 DUP3 GT ISZERO PUSH2 0x709 JUMPI PUSH2 0x708 PUSH2 0x929 JUMP JUMPDEST JUMPDEST POP PUSH2 0x76E JUMP JUMPDEST POP PUSH1 0x20 DUP4 LT PUSH2 0x133 DUP4 LT AND PUSH1 0x4E DUP5 LT PUSH1 0xB DUP5 LT AND OR ISZERO PUSH2 0x744 JUMPI DUP3 DUP3 EXP SWAP1 POP DUP4 DUP2 GT ISZERO PUSH2 0x73F JUMPI PUSH2 0x73E PUSH2 0x929 JUMP JUMPDEST JUMPDEST PUSH2 0x76E JUMP JUMPDEST PUSH2 0x751 DUP5 DUP5 DUP5 PUSH1 0x1 PUSH2 0x604 JUMP JUMPDEST SWAP3 POP SWAP1 POP DUP2 DUP5 DIV DUP2 GT ISZERO PUSH2 0x768 JUMPI PUSH2 0x767 PUSH2 0x929 JUMP JUMPDEST JUMPDEST DUP2 DUP2 MUL SWAP1 POP JUMPDEST SWAP4 SWAP3 POP POP POP JUMP JUMPDEST PUSH1 0x0 PUSH2 0x780 DUP3 PUSH2 0x8D2 JUMP JUMPDEST SWAP2 POP PUSH2 0x78B DUP4 PUSH2 0x8D2 JUMP JUMPDEST SWAP3 POP DUP3 PUSH32 0x7FFFFFFFFFFFFFFFFFFFFFFFFFFFFFFFFFFFFFFFFFFFFFFFFFFFFFFFFFFFFFFF DIV DUP3 GT PUSH1 0x0 DUP5 SGT PUSH1 0x0 DUP5 SGT AND AND ISZERO PUSH2 0x7CA JUMPI PUSH2 0x7C9 PUSH2 0x929 JUMP JUMPDEST JUMPDEST DUP2 PUSH32 0x8000000000000000000000000000000000000000000000000000000000000000 SDIV DUP4 SLT PUSH1 0x0 DUP5 SLT PUSH1 0x0 DUP5 SGT AND AND ISZERO PUSH2 0x807 JUMPI PUSH2 0x806 PUSH2 0x929 JUMP JUMPDEST JUMPDEST DUP3 PUSH32 0x8000000000000000000000000000000000000000000000000000000000000000 SDIV DUP3 SLT PUSH1 0x0 DUP5 SGT PUSH1 0x0 DUP5 SLT AND AND ISZERO PUSH2 0x844 JUMPI PUSH2 0x843 PUSH2 0x929 JUMP JUMPDEST JUMPDEST DUP3 PUSH32 0x7FFFFFFFFFFFFFFFFFFFFFFFFFFFFFFFFFFFFFFFFFFFFFFFFFFFFFFFFFFFFFFF SDIV DUP3 SLT PUSH1 0x0 DUP5 SLT PUSH1 0x0 DUP5 SLT AND AND ISZERO PUSH2 0x881 JUMPI PUSH2 0x880 PUSH2 0x929 JUMP JUMPDEST JUMPDEST DUP3 DUP3 MUL SWAP1 POP SWAP3 SWAP2 POP POP JUMP JUMPDEST PUSH1 0x0 PUSH2 0x897 DUP3 PUSH2 0x906 JUMP JUMPDEST SWAP2 POP PUSH2 0x8A2 DUP4 PUSH2 0x906 JUMP JUMPDEST SWAP3 POP DUP3 DUP3 LT ISZERO PUSH2 0x8B5 JUMPI PUSH2 0x8B4 PUSH2 0x929 JUMP JUMPDEST JUMPDEST DUP3 DUP3 SUB SWAP1 POP SWAP3 SWAP2 POP POP JUMP JUMPDEST PUSH1 0x0 PUSH2 0x8CB DUP3 PUSH2 0x8DC JUMP JUMPDEST SWAP1 POP SWAP2 SWAP1 POP JUMP JUMPDEST PUSH1 0x0 DUP2 SWAP1 POP SWAP2 SWAP1 POP JUMP JUMPDEST PUSH1 0x0 PUSH20 0xFFFFFFFFFFFFFFFFFFFFFFFFFFFFFFFFFFFFFFFF DUP3 AND SWAP1 POP SWAP2 SWAP1 POP JUMP JUMPDEST PUSH1 0x0 DUP2 SWAP1 POP SWAP2 SWAP1 POP JUMP JUMPDEST PUSH1 0x0 PUSH1 0xFF DUP3 AND SWAP1 POP SWAP2 SWAP1 POP JUMP JUMPDEST PUSH1 0x0 PUSH10 0xFFFFFFFFFFFFFFFFFFFF DUP3 AND SWAP1 POP SWAP2 SWAP1 POP JUMP JUMPDEST PUSH32 0x4E487B7100000000000000000000000000000000000000000000000000000000 PUSH1 0x0 MSTORE PUSH1 0x11 PUSH1 0x4 MSTORE PUSH1 0x24 PUSH1 0x0 REVERT JUMPDEST PUSH32 0x4E487B7100000000000000000000000000000000000000000000000000000000 PUSH1 0x0 MSTORE PUSH1 0x12 PUSH1 0x4 MSTORE PUSH1 0x24 PUSH1 0x0 REVERT JUMPDEST PUSH1 0x0 DUP1 REVERT JUMPDEST PUSH1 0x0 DUP2 PUSH1 0x1 SHR SWAP1 POP SWAP2 SWAP1 POP JUMP JUMPDEST PUSH32 0x496E76616C6964205F646563696D616C73000000000000000000000000000000 PUSH1 0x0 DUP3 ADD MSTORE POP JUMP JUMPDEST PUSH2 0x9CB DUP2 PUSH2 0x8C0 JUMP JUMPDEST DUP2 EQ PUSH2 0x9D6 JUMPI PUSH1 0x0 DUP1 REVERT JUMPDEST POP JUMP JUMPDEST PUSH2 0x9E2 DUP2 PUSH2 0x8D2 JUMP JUMPDEST DUP2 EQ PUSH2 0x9ED JUMPI PUSH1 0x0 DUP1 REVERT JUMPDEST POP JUMP JUMPDEST PUSH2 0x9F9 DUP2 PUSH2 0x8FC JUMP JUMPDEST DUP2 EQ PUSH2 0xA04 JUMPI PUSH1 0x0 DUP1 REVERT JUMPDEST POP JUMP JUMPDEST PUSH2 0xA10 DUP2 PUSH2 0x906 JUMP JUMPDEST DUP2 EQ PUSH2 0xA1B JUMPI PUSH1 0x0 DUP1 REVERT JUMPDEST POP JUMP JUMPDEST PUSH2 0xA27 DUP2 PUSH2 0x913 JUMP JUMPDEST DUP2 EQ PUSH2 0xA32 JUMPI PUSH1 0x0 DUP1 REVERT JUMPDEST POP JUMP INVALID LOG2 PUSH5 0x6970667358 0x22 SLT KECCAK256 JUMP 0xA6 0xE5 BALANCE DUP1 DUP1 0xAB DUP14 CODECOPY STATICCALL 0x1F 0xFB 0x1F 0xB1 SAR 0xE 0xC4 0xF7 0xCA DUP9 SWAP14 JUMPI DUP1 GASLIMIT 0xED SWAP6 0xF7 0x1E 0xBB 0xC9 0xA9 0xB8 PUSH5 0x736F6C6343 STOP ADDMOD SMOD STOP CALLER "
        },
        "methodIdentifiers": {
          "getDerivedPrice(address,address,uint8)": "97436655"
        }
      }
    }
  }
}