{
  "_format": "hh-sol-artifact-1",
  "contractName": "PriceConverter",
  "sourceName": "contracts/PriceConverter.sol",
  "abi": [
    {
      "inputs": [
        {
          "internalType": "address",
          "name": "_base",
          "type": "address"
        },
        {
          "internalType": "address",
          "name": "_quote",
          "type": "address"
        },
        {
          "internalType": "uint8",
          "name": "_decimals",
          "type": "uint8"
        }
      ],
      "name": "getDerivedPrice",
      "outputs": [
        {
          "internalType": "int256",
          "name": "",
          "type": "int256"
        }
      ],
      "stateMutability": "view",
      "type": "function"
    },
    {
      "inputs": [
        {
          "internalType": "address",
          "name": "_base",
          "type": "address"
        }
      ],
      "name": "getLatestPrice",
      "outputs": [
        {
          "internalType": "int256",
          "name": "",
          "type": "int256"
        }
      ],
      "stateMutability": "view",
      "type": "function"
    }
  ],
  "bytecode": "0x608060405234801561001057600080fd5b50610b69806100206000396000f3fe608060405234801561001057600080fd5b50600436106100365760003560e01c806316345f181461003b578063974366551461006b575b600080fd5b610055600480360381019061005091906104f2565b61009b565b604051610062919061064c565b60405180910390f35b6100856004803603810190610080919061051f565b610131565b604051610092919061064c565b60405180910390f35b60008082905060008173ffffffffffffffffffffffffffffffffffffffff1663feaf968c6040518163ffffffff1660e01b815260040160a06040518083038186803b1580156100e957600080fd5b505afa1580156100fd573d6000803e3d6000fd5b505050506040513d601f19601f820116820180604052508101906101219190610572565b5050509150508092505050919050565b60008060ff168260ff1611801561014f5750601260ff168260ff1611155b61018e576040517f08c379a000000000000000000000000000000000000000000000000000000000815260040161018590610667565b60405180910390fd5b60008260ff16600a6101a09190610755565b905060008573ffffffffffffffffffffffffffffffffffffffff1663feaf968c6040518163ffffffff1660e01b815260040160a06040518083038186803b1580156101ea57600080fd5b505afa1580156101fe573d6000803e3d6000fd5b505050506040513d601f19601f820116820180604052508101906102229190610572565b50505091505060008673ffffffffffffffffffffffffffffffffffffffff1663313ce5676040518163ffffffff1660e01b815260040160206040518083038186803b15801561027057600080fd5b505afa158015610284573d6000803e3d6000fd5b505050506040513d601f19601f820116820180604052508101906102a891906105ed565b90506102b58282876103f1565b915060008673ffffffffffffffffffffffffffffffffffffffff1663feaf968c6040518163ffffffff1660e01b815260040160a06040518083038186803b1580156102ff57600080fd5b505afa158015610313573d6000803e3d6000fd5b505050506040513d601f19601f820116820180604052508101906103379190610572565b50505091505060008773ffffffffffffffffffffffffffffffffffffffff1663313ce5676040518163ffffffff1660e01b815260040160206040518083038186803b15801561038557600080fd5b505afa158015610399573d6000803e3d6000fd5b505050506040513d601f19601f820116820180604052508101906103bd91906105ed565b90506103ca8282896103f1565b91508185856103d99190610873565b6103e39190610698565b955050505050509392505050565b60008160ff168360ff16101561042e57828261040d919061098a565b60ff16600a61041c9190610755565b846104279190610873565b905061046d565b8160ff168360ff161115610469578183610448919061098a565b60ff16600a6104579190610755565b846104629190610698565b905061046d565b8390505b9392505050565b60008135905061048381610ac0565b92915050565b60008151905061049881610ad7565b92915050565b6000815190506104ad81610aee565b92915050565b6000813590506104c281610b05565b92915050565b6000815190506104d781610b1c565b92915050565b6000815190506104ec81610b05565b92915050565b60006020828403121561050857610507610a85565b5b600061051684828501610474565b91505092915050565b60008060006060848603121561053857610537610a85565b5b600061054686828701610474565b935050602061055786828701610474565b9250506040610568868287016104b3565b9150509250925092565b600080600080600060a0868803121561058e5761058d610a85565b5b600061059c888289016104c8565b95505060206105ad88828901610489565b94505060406105be8882890161049e565b93505060606105cf8882890161049e565b92505060806105e0888289016104c8565b9150509295509295909350565b60006020828403121561060357610602610a85565b5b6000610611848285016104dd565b91505092915050565b610623816109d0565b82525050565b6000610636601183610687565b915061064182610a97565b602082019050919050565b6000602082019050610661600083018461061a565b92915050565b6000602082019050818103600083015261068081610629565b9050919050565b600082825260208201905092915050565b60006106a3826109d0565b91506106ae836109d0565b9250826106be576106bd610a56565b5b600160000383147f8000000000000000000000000000000000000000000000000000000000000000831416156106f7576106f6610a27565b5b828205905092915050565b6000808291508390505b600185111561074c5780860481111561072857610727610a27565b5b60018516156107375780820291505b808102905061074585610a8a565b945061070c565b94509492505050565b6000610760826109fa565b915061076b836109fa565b92506107987fffffffffffffffffffffffffffffffffffffffffffffffffffffffffffffffff84846107a0565b905092915050565b6000826107b0576001905061086c565b816107be576000905061086c565b81600181146107d457600281146107de5761080d565b600191505061086c565b60ff8411156107f0576107ef610a27565b5b8360020a91508482111561080757610806610a27565b5b5061086c565b5060208310610133831016604e8410600b84101617156108425782820a90508381111561083d5761083c610a27565b5b61086c565b61084f8484846001610702565b9250905081840481111561086657610865610a27565b5b81810290505b9392505050565b600061087e826109d0565b9150610889836109d0565b9250827f7fffffffffffffffffffffffffffffffffffffffffffffffffffffffffffffff04821160008413600084131616156108c8576108c7610a27565b5b817f8000000000000000000000000000000000000000000000000000000000000000058312600084126000841316161561090557610904610a27565b5b827f8000000000000000000000000000000000000000000000000000000000000000058212600084136000841216161561094257610941610a27565b5b827f7fffffffffffffffffffffffffffffffffffffffffffffffffffffffffffffff058212600084126000841216161561097f5761097e610a27565b5b828202905092915050565b600061099582610a04565b91506109a083610a04565b9250828210156109b3576109b2610a27565b5b828203905092915050565b60006109c9826109da565b9050919050565b6000819050919050565b600073ffffffffffffffffffffffffffffffffffffffff82169050919050565b6000819050919050565b600060ff82169050919050565b600069ffffffffffffffffffff82169050919050565b7f4e487b7100000000000000000000000000000000000000000000000000000000600052601160045260246000fd5b7f4e487b7100000000000000000000000000000000000000000000000000000000600052601260045260246000fd5b600080fd5b60008160011c9050919050565b7f496e76616c6964205f646563696d616c73000000000000000000000000000000600082015250565b610ac9816109be565b8114610ad457600080fd5b50565b610ae0816109d0565b8114610aeb57600080fd5b50565b610af7816109fa565b8114610b0257600080fd5b50565b610b0e81610a04565b8114610b1957600080fd5b50565b610b2581610a11565b8114610b3057600080fd5b5056fea2646970667358221220a334206a7ea01525ceb746cfc3e56719db5e7cfd81aa7570bd1546ac257c83b364736f6c63430008070033",
  "linkReferences": {},
  "deployedLinkReferences": {}
}